:02000002B0004C
:1040000000400B00AC590B00000006000C0005023C
:084010000401810C0000000016
:044018005C560B00E7
:10401C0009480A49884208B505D0094A824202D0AB
:10402C00121A01F063FA0748074A0021121A01F02C
:10403C006BFA014808BD00BF1CE6032014590B00A5
:10404C008CE603208CE60320EDE7032070B5074EC9
:10405C00074C00F079FEA41BA4080025AC4200D14B
:10406C0070BD56F8043B98470135F7E7DC580B0058
:10407C0004590B0000F028B808B500F053F8BDE85F
:10408C00084000F019BE00F0C3BC00F0C9BC0078B9
:10409C00B0FA80F0400970470123037070470000AC
:1040AC00014B01221A7070479CE603200EB403B535
:1040BC0003AB002153F8042B019300F088FD02B0F0
:1040CC005DF804EB03B0704707B500F045FF4FF403
:1040DC00165100F035FF41F2883000F0C1FD00F0C0
:1040EC003BFF0D49FFF7E2FF0021132001F050F9CF
:1040FC0000220A4900924FF0FF33132000F054FFC6
:10410C00074800F084F8064800F0A9FA044803B008
:10411C005DF804EB00F0B4B870560B00AD400B002A
:10412C00A0E6032070B5184D184C194E00232B60D7
:10413C0029682368994209DC4FF47F0289B2304622
:10414C0000F04AFA2B6801332B60F1E7104800F0BD
:10415C0097F8104B1B786BB900F0FEFE0E49FFF779
:10416C00A5FF21680A4801312160BDE8704089B281
:10417C0000F030B800F0F0FE22680849FFF796FF17
:10418C00122000F03BFFFBE798E603201CE603201F
:10419C00A0E603209CE603207E560B0098560B00ED
:1041AC00094B10B50022C3E90022A2F580329A60B7
:1041BC00022000F0A1FB054905480988BDE8104024
:1041CC000223062200F04AB88CE603201CE60320EA
:1041DC00A0E6032038B50446C0680D4608B100F0CF
:1041EC001FFCA379062B0CBF0420032010FB05F049
:1041FC0080B2A08000F00CFCE06028B1A288002105
:10420C0001F082F9658038BDA0806080FBE710B5B5
:10421C0004460121C07901F0BBF8E079002101F0DE
:10422C00C8F80123237010BD37B5037805460C463A
:10423C001BB1C079002101F0ABF82B78EC715BB1AC
:10424C00A0B20121019001F0A3F80198002103B064
:10425C00BDE8304001F0ADB803B030BD70B50025FD
:10426C00044616468371C0E9035505700572FFF7C5
:10427C00B1FF20463146FFF7D7FF204670BD000046
:10428C00C368002B00F0A4812DE9F04F8379023B29
:10429C00DBB2042B9CBFBF4A52F8234085B00546C5
:1042AC0088BF322400F040FA2B69C01AA042F9D31F
:1042BC00B94CAE88D4F800351BB9D4F86035002B56
:1042CC007EDBB64CD4F8003523B9D4F86035002B1E
:1042DC00C0F26E81B24CD4F80035002B00F0448152
:1042EC00EB79B04AB04C1268190102EB0313575C1E
:1042FC00AE495B78D1F8FC2042F08072C1F8FC200A
:10430C00226803F01F0343EA471301273A43226054
:10431C00A988D5F80C80D4F804909F40002944D08B
:10432C004FF0000E72464FF0A04118F801CB082058
:10433C00802663689B1A462BFBD96268D1F8083536
:10434C001CEA060F43EA0703C1F808352FD063684F
:10435C009B1A282BFBD9D1F80C35013843EA0703FB
:10436C004FEA5606C1F80C35E3D1AB880EF1010EBD
:10437C001FFA8EFE7345D8D84FF4307103FB01F150
:10438C0063689B1A462BFBD96368A3EB0909894523
:10439C00C0F0E4804FF4967000F0BEF9A988D5F80F
:1043AC000C80D4F804900029BAD10A46E8E7636877
:1043BC009B1A112BCFD863689B1A112BF7D9CAE71C
:1043CC00D4F86435002BBFF67CAFD4F86835002BDD
:1043DC00BFF677AFD4F86C35002BBFF672AF360151
:1043EC00331D1846009300F013FB00283FF478AF00
:1043FC00AB88002B00F0ED80EA68013B12FA83F7E2
:10440C0002F1FF3E002348F2060248F20D011EF8AD
:10441C0001CF1CF0800F0CBF93468B461CF0400F55
:10442C000CBF16460E461CF0200F0CBF904688465B
:10443C0003F10109CDF80880019603F102081FFA77
:10444C0089F9019E20F813B01FFA88F820F819603A
:10445C00029E20F8186003F103081CF0100F1FFADD
:10446C0088F80CBF93468B4620F818B003F104086B
:10447C001CF0080F1FFA88F80CBF93468B4620F8E7
:10448C0018B003F105081CF0040F1FFA88F80CBFD4
:10449C0093468B4620F818B003F1080A03F106087E
:1044AC0007339BB21CF0020F1FFA88F80CBF93461F
:1044BC008B46CDF80CA01CF0010F20F818B015BFDE
:1044CC0020F8131020F813201FFA8AF3BDF80C30D3
:1044DC0077459CD1591C023389B29BB249005B00D1
:1044EC004FF400474752009AC7522E4B56081F688C
:1044FC0000221423C4F80425C4F80C25C4F808358C
:10450C00C4F81425C4F81025C4F82005C4F8246593
:10451C00C4F82825C4F82C25EB7907EB031C1B01E8
:10452C000121FE5C9CF8013003F01F0343EA4613A3
:10453C00C4F86035C4F80015C4F81021A160D4F893
:10454C001031002BFBD000234FF0FF32C4F8103198
:10455C00C4F80035C4F8602500F062FA00F0E4F805
:10456C00286105B0BDE8F08FD4F86035002BBFF69C
:10457C00B7AED4F86435002BBFF6B2AED4F86835BC
:10458C00002BBFF6ADAED4F86C35002BBFF6A8AE41
:10459C0025E700BFC0560B0000C0014000100240D0
:1045AC0000200240B4E60320001000E000ED00E023
:1045BC00D4F86435002BBFF68DAED4F86835002BDB
:1045CC00BFF688AED4F86C35002BBFF683AE06E789
:1045DC0070470423022183E743888B42F0B52DD921
:1045EC00067AC2F30743C2F30724D5B23EB1734334
:1045FC0074437543C3F30723C4F307242D0A90F8BF
:10460C0006C0C768BCF1060F0CBF042603264E4338
:10461C00ACF1020CB919BCF1060F1DD8DFE80CF097
:10462C00041C08040F040400BC554B708D7005E08D
:10463C00FE2B28BFFE23BB554D708C70F0BDBB55B7
:10464C004C708D70037A120E13B9D2B2CA70F5E7A2
:10465C005A43C2F30722F9E7BB554C70E6E7828850
:10466C00C068002100F050BF08B500F015F8014BF0
:10467C00186008BDB4E6032008B5024B1B689B68A4
:10468C00019308BD6802030008B5024B1B68DB6888
:10469C00019308BD6802030008B5024B1B681B6838
:1046AC00019308BD2C02030008B5024B1B685B6824
:1046BC00019308BD2C02030008B5024B1B689B68D4
:1046CC00019308BD2C02030008B5024B1B68DB6884
:1046DC00019308BD2C02030008B5024B1B681B6933
:1046EC00019308BD2C02030008B5024B1B689B69A3
:1046FC00019308BD2C02030008B5024B1B68DB6953
:10470C00019308BD2C02030008B5024B1B685B68C3
:10471C00019308BD1802030008B5024B1B68DB6847
:10472C00019308BD1802030008B5024B1B681B69F6
:10473C00019308BD1802030008B5024B1B685B69A6
:10474C00019308BD1802030008B5024B1B685B6C93
:10475C00019308BD4802030008B5024B1B685B6956
:10476C00019308BD6402030008B5024B1B68DB68AB
:10477C00019308BD3C02030008B5024B1B681B6982
:10478C00019308BD3C02030008B5024B1B685B6932
:10479C00019308BD3C02030008B5024B1B689B69E2
:1047AC00019308BD3C02030008B5024B1B68DB6992
:1047BC00019308BD3C02030008B5024B1B681B6A41
:1047CC00019308BD3C02030008B5024B1B689B6AB1
:1047DC00019308BD3C02030008B5024B1B681B6C1F
:1047EC00019308BD3C02030008B5024B1B681B6A11
:1047FC00019308BD2802030008B5024B1B685B6AD5
:10480C00019308BD2802030008B5024B1B689B6A84
:10481C00019308BD2802030008B5024B1B68DB6A34
:10482C00019308BD2802030008B5024B1B681B6BE3
:10483C00019308BD2802030008B5024B1B685B6B93
:10484C00019308BD2802030008B5024B1B681B6CC2
:10485C00019308BD2802030008B5024B1B68DB69F5
:10486C00019308BD3002030008B5024B1B681B6A9C
:10487C00019308BD3002030008B5024B1B685B684E
:10488C00019308BD2402030008B5024B1B681B688A
:10489C00019308BD4C02030008B5024B1B685B6812
:1048AC00019308BD4C02030008B5024B1B681B6941
:1048BC00019308BD4C02030008B5024B1B685B69F1
:1048CC00019308BD4C02030008B5024B1B689B69A1
:1048DC00019308BD4C02030008B5024B1B68DB6951
:1048EC00019308BD4C02030008B5024B1B681B6A00
:1048FC00019308BD4C02030008B5024B1B685B68B2
:10490C00019308BD2002030008B5024B1B685B69CC
:10491C00019308BD2002030008B5034B1B68D3F8B4
:10492C008830019308BD00002002030008B5034B3A
:10493C001B68D3F89430019308BD000020020300DB
:10494C0008B5024B1B685B68019308BD400203006D
:10495C0008B5024B1B689B68019308BD400203001D
:10496C0008B5024B1B68DB68019308BD40020300CD
:10497C0008B5024B1B681B69019308BD400203007C
:10498C0008B5024B1B685B69019308BD400203002C
:10499C0008B5024B1B689B69019308BD40020300DC
:1049AC0008B5024B1B68DB69019308BD400203008C
:1049BC0008B5024B1B681B6A019308BD400203003B
:1049CC0008B5024B1B681B6B019308BD400203002A
:1049DC0008B5024B1B685B6B019308BD40020300DA
:1049EC0008B5024B1B681B6C019308BD4002030009
:1049FC0008B5024B1B685B6C019308BD40020300B9
:104A0C0008B5024B1B68DB6B019308BD4402030025
:104A1C0008B5024B1B681B68019308BD1C02030000
:104A2C0008B5024B1B685B68019308BD1C020300B0
:104A3C0008B5024B1B685B6A019308BD1C0203009E
:104A4C0008B5024B1B681B6C019308BD1C020300CC
:104A5C0008B5024B1B685B6C019308BD1C0203007C
:104A6C00002240681146FFF7A3BF002240681146A0
:104A7C00FFF7AEBF40680022FFF7A2BF40680022DC
:104A8C0081F00101FFF78CBF002340681A461946DC
:104A9C00FFF77EBF002340681A461946FFF770BF28
:104AAC00002240681146FFF763BF002240681146A0
:104ABC00FFF74EBF406800220221FFF751BF0023D1
:104ACC0040681A46FFF73CBF024B03225A60024A69
:104ADC001A607047B8E60320DC560B0010B504468C
:104AEC0008462170FFF7B8FE00236360204610BD16
:104AFC00054B02221A60054B054A9A600020C3E957
:104B0C000000FFF7F9BE00BFCCE60320C0E603208F
:104B1C000000FFFF024800230360FFF715BE00BF33
:104B2C00D0E60320F8B506460D468F180024BD428A
:104B3C000CD0336815F8011B9B6830469847031E50
:104B4C0001DB1C44F3E7002C08BF1C462046F8BDD3
:104B5C0013B50446084659B1019100F00BFD2368CA
:104B6C000199DB680246204602B0BDE810401847A8
:104B7C0002B010BD03689B68184738B50D21054677
:104B8C00FFF7F8FF0A2104462846FFF7F3FF2044FD
:104B9C0038BD30B58BB00023012A8DF8243098BF76
:104BAC000A2209AC0D46B1FBF2F101FB125303F0E2
:104BBC00FF03092B94BF30333733DBB2AA4204F81E
:104BCC00013DEFD92146FFF7C3FF0BB030BD2DE9F6
:104BDC00F04186B000AF05460E46381D1421144630
:104BEC003B60FFF725FF13280ED8391D2846FFF729
:104BFC00AFFF04461EB12846FFF7BFFF0444204612
:104C0C001837BD46BDE8F08100F1080323F0070317
:104C1C00E846ADEB030D2246411C3B686846FFF7A6
:104C2C0007FF69462846FFF793FF0446C546E1E7B0
:104C3C00002340681A461946FFF7A2BE014B024AF0
:104C4C001A607047D4E6032010570B00024B1A6809
:104C5C00024B1A60704700BF20E60320D8E6032001
:104C6C000021FFF751BE0000014B00229A607047F3
:104C7C00DCE60320014B1860704700BF24E60320DC
:104C8C0008B50B4B43B100F067F903681B699847F3
:104C9C00002801DDAFF30080064B43B100F0BEFBF2
:104CAC0003681B699847002801DDAFF3008008BD3D
:104CBC00000000000000000008B5FFF7E1FFFFF75F
:104CCC003BFD014B186008BD40E703200548064A30
:104CDC00064908B5121A00F009FC054B054A1A6082
:104CEC0008BD00BF00F4032004F4032010590B008E
:104CFC0000F403201E1C279A07B5002300931A46C4
:104D0C006FF07701FFF712FE03B05DF804FB0000B3
:104D1C0007B543880A2B08D0502B0BD1094B1B68C5
:104D2C004BB103B05DF804EB1847FFF7E5FF03B098
:104D3C005DF804FB002300931A466FF07701FFF730
:104D4C00F5FDF4E7F0E6032010B512480021FFF75B
:104D5C007FFE114B1A68114B9A42114B0CBF01226A
:104D6C0000221A7001D0FFF7B1FFFFF7CDFC04460B
:104D7C0000F0D2FB0B4B13B12046AFF300800021A7
:104D8C000848FFF73DFEBDE8104007480021FFF73B
:104D9C00C3BD00BF814C0B0000F403201E1C279ADE
:104DAC00ECE60320000000001D4D0B00704710B511
:104DBC0018210446FFF769F9204610BDF0B5037DB4
:104DCC00062B8DB00E4600F104074FF0000412D0F4
:104DDC0000F1080515F8011D0A223046FFF7D9FE2F
:104DEC00AF42044419D0002CF4D02E213046FFF7EA
:104DFC00C1FE0444EEE72F236A4639460A208DF89B
:104E0C000040FFF7A9FC684600F0B4FB336802468B
:104E1C00DB68694630469847044620460DB0F0BD25
:104E2C0010B5054B0446112240F8043B002100F05C
:104E3C006BFB204610BD00BF38570B000346074ADA
:104E4C0010B543F8042B01F1100251F8044B43F850
:104E5C00044B9142F9D10A781A7010BD38570B00E7
:104E6C0010B59DF8084044EA032343EA024242EAA3
:104E7C00016104234160037510BD000007B5064BAA
:104E8C000360CB7800938B784A780978FFF7E8FFBA
:104E9C0003B05DF804FB00BF38570B00417470473A
:104EAC007047704708B50021007CFFF70DFD40EA04
:104EBC00E07008BD08B50121007CFFF705FD40EA54
:104ECC00E07008BD08B5007CFFF7F6FC20EAE07046
:104EDC0008BD08B5007CFFF7E7FC20EAE07008BDD0
:104EEC0013B50446007C0191FFF7E6FC00280199FC
:104EFC0001DC607C20B1207CFFF7EEFC20EAE07046
:104F0C0002B010BD007CFFF7EFBC10B514210446B5
:104F1C00FFF7BBF8204610BD10B54FF47A7304466A
:104F2C0008460021C4E90113044B236001232074BB
:104F3C0063741146FFF7A8FC204610BD4C570B00BC
:104F4C00007C0022FFF7A8BC10B5142204460021F7
:104F5C0000F0DAFA204610BD10B50F4C88B003A84B
:104F6C00FFF7F2FF2178BFF35B8F11F001010FD136
:104F7C0020460191FFF78BF8019948B103AA074825
:104F8C00FFF7CAFF2046FFF787F8054800F0A8FA9C
:104F9C00024808B010BD00BFF4E60320F8E6032079
:104FAC00AD4E0B00004700002DE9FF4100241D46CB
:104FBC000F4690460646FFF79FFBA5424FF00403B1
:104FCC00ADF80D408DF80C308DF80F40A2BF9DF858
:104FDC0028308DF80E3003AC0749009443463A460E
:104FEC003046A8BF8DF80D50FFF77EFBB0FA80F06D
:104FFC00400904B0BDE8F081B14F0B0038B585B263
:10500C000446284600F086F950B102212846FFF7E5
:10501C004BFB022804D12046BDE83840FFF72CBCDE
:10502C0038BD70474174704708B5007CFFF7CCFB66
:10503C0020EAE07008BD08B5007CFFF79DFB20EA74
:10504C00E07008BD08B5007CFFF7A6FB40EAE070F5
:10505C0008BD08B5007CFFF797FB40EAE07008BD7F
:10506C00007CFFF7A1BB37B5457C04462DB1207CF5
:10507C0003B0BDE83040FFF777BB007C0191FFF730
:10508C00A3FB00280199F2DC284603B030BD10B513
:10509C0014210446FEF7F9FF204610BD10B54FF45D
:1050AC007A730446084611460022C4E90123044BD6
:1050BC002360012320746374FFF78EFB204610BD20
:1050CC007C570B007047F8B5064615460C468F18F2
:1050DC00BC4206D0336814F8011B9B6830469847D5
:1050EC00F6E72846F8BD007C0022FFF77DBB007C6C
:1050FC000021FFF781BB007C0021FFF785BB007C02
:10510C000021FFF789BB007C0021FFF78DBB10B598
:10511C0014210446FEF7B9FF204610BD10B54FF41C
:10512C007A73044608460021C4E90113034B23603B
:10513C0020741146FFF788FB204610BDAC570B00BE
:10514C00002240681146FFF713BC0022406811464C
:10515C00FFF72EBC002240681146FFF739BC4068AF
:10516C000022FFF72DBC4068002281F00101FFF7FF
:10517C0017BC002340681A461946FFF709BC0022E9
:10518C0040681146FFF7E4BB406800220221FFF79C
:10519C00E7BB002340681A46FFF7D2BB024B042240
:1051AC005A60024A1A6070470CE70320D4570B0070
:1051BC00002340681A46FFF7C3BB40680022022157
:1051CC00FFF7CEBB002240681146FFF7C1BB00229F
:1051DC0040681146FFF7CCBB002340681A461946BD
:1051EC00FFF7CEBB002340681A461946FFF7D0BB29
:1051FC0040680021FFF7F4BB40680021FFF7F8BBC3
:10520C004068002281F00101FFF7CABB4068002210
:10521C00FFF7D6BB002240681146FFF7D9BB00222E
:10522C0040681146FFF7C4BB2DE9F04395B0144616
:10523C000D460746FFF7F4FD00211C220DA8009136
:10524C0000F062F940230C9320466B460CAA002117
:10525C00FFF71AFA044600284BD102460121686870
:10526C00FFF786FB0221804622466868FFF780FB29
:10527C00009E81462146002E3BD0002939D173680F
:10528C00022B03D00A2B11D0F669F4E7B8F1000F0A
:10529C00FAD0716906A8043107ADFFF7EFFD0FCD09
:1052AC003C1D0FC42B6823704146EDE7B9F1000F8C
:1052BC00EAD07469102201A800F026F906238DF8B3
:1052CC00143001AD04F108031834186859682A46E3
:1052DC0003C20833A3421546F7D101A906A807ADAE
:1052EC00FFF7ACFD0FCD3C1D0FC42B682370494656
:1052FC00CAE70098FFF7C0F9384615B0BDE8F0834F
:10530C00024B034A1A6000225A60704714E70320CC
:10531C0010580B00232813B502D9002002B010BD81
:10532C00A0F10B03022B1AD8174C2178BFF35B8F1B
:10533C0011F001010BD120460191FEF7A8FE019955
:10534C0028B11248FFF7CAFB2046FEF7A5FE0F4B0B
:10535C001878FFF789FA0028DFD10120DEE7012851
:10536C0009D800F097F80021007CFFF765FA80F06F
:10537C000100C0B2D2E709380128EED800F04EF88F
:10538C00007CFFF719FAF2E71CE7032020E7032063
:10539C00232838B504460D460AD8FF2908D0FFF754
:1053AC00B9FF28B129462046BDE83840FFF784B93B
:1053BC0038BD38B504460D46FFF786F9FF2810D0E6
:1053CC00062804D84D2323FA00F0C30709D420463D
:1053DC00FFF7A0FF28B129462046BDE83840FFF76B
:1053EC007BB938BD7047000038B5044614252A46F1
:1053FC00002100F089F825804025074925812846A1
:10540C00258200F06BF804496060284600F066F8CD
:10541C00E060204638BD00BF44580B0030B50E4D3F
:10542C002978BFF35B8F11F0010487B011D12846A6
:10543C00FEF72DFE68B101A8FFF7D6FF01AA2146A1
:10544C000648FFF72BFE2846FEF726FE044800F020
:10545C0047F8024807B030BD28E703202CE70320AB
:10546C00F1530B007047000038B520251423044677
:10547C000360856005610649284600F02FF8044951
:10548C006060284600F02AF8E060204638BD00BF76
:10549C0044580B0030B50E4D2978BFF35B8F11F0DB
:1054AC00010487B011D12846FEF7F1FD68B101A8BF
:1054BC00FFF7DAFF01AA21460648FFF72FFE284620
:1054CC00FEF7EAFD044800F00BF8024807B030BDC7
:1054DC0044E7032048E7032071540B00FEF7D3BDCB
:1054EC00002301461A46184600F04CB80A44914273
:1054FC0000F1FF3300D1704710B511F8014B03F8E0
:10550C00014F9142F9D110BD02440346934200D1A0
:10551C00704703F8011BF9E738B5104B1D68AB6BEE
:10552C000446B3B91820FFF773FA0246A86320B9F2
:10553C000B4B0C484221FFF783FA0B490B4BC0E98C
:10554C0000130B4B83600B23838100210120C2E9E4
:10555C000401AB6B00221C615A6138BD24E60320A8
:10556C0045580B005C580B000E33CDAB34126DE676
:10557C00ECDE0500034613F8012B002AFBD1181AA8
:10558C00013870472DE9F843DFF8B8800646D8F8A3
:10559C0000001F460D46914600F056F8254B1C683E
:1055AC0034B9254C1C60254B13B11B68C4F88830EA
:1055BC0063681F2B07DDD8F8000000F047F84FF0A8
:1055CC00FF30BDE8F8834EB3D4F8880088B91C4B83
:1055DC0023B9D8F8000000F038F8F0E74FF48470E5
:1055EC00FFF716FA0028F4D00023C0E94033C4F8C2
:1055FC008800636840F8239001229A4000EB8301F5
:10560C00D0F800311343C0F80031022EC1F880707D
:10561C0002BFD0F804311343C0F804316368D8F8E2
:10562C0000005A1C0233626044F8235000F00EF85C
:10563C000020C6E7E8E703205CE703200000000039
:10564C001D4A0B0088E60320704770477047000026
:10565C001D400B0059400B0081400B0085400B0096
:10566C000000000053657269616C20626567696EA9
:10567C000A00506978656C206E756D6265722069E0
:10568C006E6372656D656E7465640A00546865724C
:10569C006520617265202569204E656F706978659B
:1056AC006C20696E207468697320737472696E67FC
:1056BC000A0000002C01000018000000F40100009A
:1056CC002C01000050000000000000000000000051
:1056DC00CB4A0B00C14A0B00B74A0B00AD4A0B007A
:1056EC00A14A0B00954A0B00FD510B0005520B0013
:1056FC00894A0B00814A0B00774A0B006D4A0B005C
:10570C0035520B006170700025592D256D2D2564C7
:10571C005425483A254D3A2553257A006173637414
:10572C00696D65000000000000000000C94D0B0011
:10573C00B94D0B00BB4D0B00000000000000000039
:10574C00AF4E0B00174F0B00ED4E0B00314B0B0007
:10575C00DF4E0B00B14E0B00C14E0B00114F0B0076
:10576C00D14E0B00A94E0B00000000000000000001
:10577C002F500B009B500B0073500B00314B0B0048
:10578C0043500B005F500B0051500B006D500B0041
:10579C0031500B0035500B000000000000000000E1
:1057AC00D1500B001B510B00F3500B00D3500B00CE
:1057BC00FB500B0003510B000B510B0013510B0052
:1057CC0000000000000000009F510B0095510B00E1
:1057DC008B510B004D510B003D4C0B007F510B00BE
:1057EC00FD510B0005520B0073510B006B510B005C
:1057FC0061510B0057510B0035520B00000000009B
:10580C0000000000BD510B00C7510B00D1510B0023
:10581C00DB510B00E5510B00F1510B00FD510B005E
:10582C0005520B000D520B0019520B0021520B00AC
:10583C002B520B0035520B00005245454E54206D37
:10584C00616C6C6F6320737563636565646564007C
:10585C002F6D6E742F776F726B73706163652F771A
:10586C006F726B73706163652F4743432D31302D1D
:10587C00706970656C696E652F6A656E6B696E73A5
:10588C002D4743432D31302D706970656C696E6501
:10589C002D34385F32303230313132345F31363082
:1058AC00363138303634312F7372632F6E65776C26
:1058BC0069622F6E65776C69622F6C6962632F73F6
:1058CC0074646C69622F72616E642E630000000058
:1058DC00AD410B0075460B00D54A0B00FD4A0B0081
:1058EC00214B0B00494C0B00594C0B00754C0B0019
:1058FC00A9510B000D530B0000000000000000002C
:04590C000000000097
:045910000000000093
:105914000100000028570B0028E6032000000000C7
:105924000000000000000000000000000000000073
:105934000000000000000000000000000000000063
:105944000000000000000000000000000000000053
:105954000000000000000000000000000000000043
:105964000000000000000000000000000000000033
:10597400000000000000000000000000ECE703202D
:10598400FFFFFFFF00000102030405060708090AE0
:105994000B0C0D0E0F101112131415161718191ADB
:0859A4001B1C1D1E1F20280022
:0459AC0078563412E3
:04000003B000401CED
:00000001FF
